:10080000E4F5A01208AA7F831208DA7F0A7E00129C
:10081000088A7F311208BE7F421208BE7F59120833
:10082000BE7F311208BE7F391208BE7F451208BE56
:100830007F431208BE7F301208BE7F361208BE7F8B
:10084000361208BE7FC31208DA7F0A7E0012088AB9
:100850007F4A1208BE7F411208BE7F531208BE7F36
:10086000571208BE7F411208BE7F4E1208BE7F5449
:100870001208BE7F481208BE7F201208BE7F5302B6
:0208800008BEB0
:1008AA007F381208DA7F0E1208DA7F011208DA7F1F
:0408BA00060208DA50
:1008BE008FA0D280120882C2827F0A7E0002088A2E
:0A08DA008FA0C280120882C28222A1
:08088200C281D2827F017E00D9
:10088A00E4FDFCD3ED9FEC9E5015E4FBFA0BBB0094
:0F089A00010AEB64034A70F50DBD00010C80E408
:0108A900222C
:030000000208CE25
:0C08CE00787FE4F6D8FD75810702080071
:00000001FF
